{
  "_format": "hh-sol-artifact-1",
  "contractName": "TicTacToe",
  "sourceName": "contracts/tictactoe.sol",
  "abi": [
    {
      "inputs": [
        {
          "internalType": "uint8",
          "name": "_stake",
          "type": "uint8"
        }
      ],
      "stateMutability": "nonpayable",
      "type": "constructor"
    },
    {
      "anonymous": false,
      "inputs": [
        {
          "indexed": true,
          "internalType": "address",
          "name": "winner",
          "type": "address"
        },
        {
          "indexed": false,
          "internalType": "uint256",
          "name": "amountWon",
          "type": "uint256"
        }
      ],
      "name": "GameOver",
      "type": "event"
    },
    {
      "anonymous": false,
      "inputs": [
        {
          "indexed": true,
          "internalType": "address",
          "name": "player",
          "type": "address"
        },
        {
          "indexed": false,
          "internalType": "uint8",
          "name": "row",
          "type": "uint8"
        },
        {
          "indexed": false,
          "internalType": "uint8",
          "name": "col",
          "type": "uint8"
        }
      ],
      "name": "MoveMade",
      "type": "event"
    },
    {
      "anonymous": false,
      "inputs": [],
      "name": "NewGameStarted",
      "type": "event"
    },
    {
      "inputs": [
        {
          "internalType": "uint256",
          "name": "",
          "type": "uint256"
        },
        {
          "internalType": "uint256",
          "name": "",
          "type": "uint256"
        }
      ],
      "name": "board",
      "outputs": [
        {
          "internalType": "uint8",
          "name": "",
          "type": "uint8"
        }
      ],
      "stateMutability": "view",
      "type": "function"
    },
    {
      "inputs": [],
      "name": "currentPlayer",
      "outputs": [
        {
          "internalType": "address",
          "name": "",
          "type": "address"
        }
      ],
      "stateMutability": "view",
      "type": "function"
    },
    {
      "inputs": [],
      "name": "getBoard",
      "outputs": [
        {
          "internalType": "uint8[3][3]",
          "name": "",
          "type": "uint8[3][3]"
        }
      ],
      "stateMutability": "view",
      "type": "function"
    },
    {
      "inputs": [],
      "name": "joinGame",
      "outputs": [],
      "stateMutability": "payable",
      "type": "function"
    },
    {
      "inputs": [
        {
          "internalType": "uint8",
          "name": "row",
          "type": "uint8"
        },
        {
          "internalType": "uint8",
          "name": "col",
          "type": "uint8"
        }
      ],
      "name": "makeMove",
      "outputs": [],
      "stateMutability": "nonpayable",
      "type": "function"
    },
    {
      "inputs": [],
      "name": "player1",
      "outputs": [
        {
          "internalType": "address",
          "name": "",
          "type": "address"
        }
      ],
      "stateMutability": "view",
      "type": "function"
    },
    {
      "inputs": [],
      "name": "player2",
      "outputs": [
        {
          "internalType": "address",
          "name": "",
          "type": "address"
        }
      ],
      "stateMutability": "view",
      "type": "function"
    },
    {
      "inputs": [],
      "name": "stake",
      "outputs": [
        {
          "internalType": "uint8",
          "name": "",
          "type": "uint8"
        }
      ],
      "stateMutability": "view",
      "type": "function"
    },
    {
      "inputs": [],
      "name": "startNewGame",
      "outputs": [],
      "stateMutability": "payable",
      "type": "function"
    },
    {
      "inputs": [],
      "name": "turn",
      "outputs": [
        {
          "internalType": "uint8",
          "name": "",
          "type": "uint8"
        }
      ],
      "stateMutability": "view",
      "type": "function"
    },
    {
      "inputs": [],
      "name": "winner",
      "outputs": [
        {
          "internalType": "address",
          "name": "",
          "type": "address"
        }
      ],
      "stateMutability": "view",
      "type": "function"
    }
  ],
  "bytecode": "0x60806040523480156200001157600080fd5b5060405162001e9538038062001e958339818101604052810190620000379190620000e5565b60008160ff161162000080576040517f08c379a0000000000000000000000000000000000000000000000000000000008152600401620000779062000178565b60405180910390fd5b80600360156101000a81548160ff021916908360ff160217905550506200019a565b600080fd5b600060ff82169050919050565b620000bf81620000a7565b8114620000cb57600080fd5b50565b600081519050620000df81620000b4565b92915050565b600060208284031215620000fe57620000fd620000a2565b5b60006200010e84828501620000ce565b91505092915050565b600082825260208201905092915050565b7f5374616b65206d7573742062652067726561746572207468616e203000000000600082015250565b600062000160601c8362000117565b91506200016d8262000128565b602082019050919050565b60006020820190508181036000830152620001938162000151565b9050919050565b611ceb80620001aa6000396000f3fe60806040526004361061009c5760003560e01c80635e24b0f1116100645780635e24b0f1146101575780638086a92a146101805780638b299903146101bd578063d30895e4146101e8578063d4f77b1c14610213578063dfbf53ae1461021d5761009c565b80633264a34b146100a15780633a4b66f1146100cc5780634404a438146100f7578063482d51e01461012257806359a5f12d1461012c575b600080fd5b3480156100ad57600080fd5b506100b6610248565b6040516100c39190611614565b60405180910390f35b3480156100d857600080fd5b506100e16102ee565b6040516100ee919061163f565b60405180910390f35b34801561010357600080fd5b5061010c610301565b604051610119919061169b565b60405180910390f35b61012a610327565b005b34801561013857600080fd5b50610141610515565b60405161014e919061169b565b60405180910390f35b34801561016357600080fd5b5061017e600480360381019061017991906116e7565b61053b565b005b34801561018c57600080fd5b506101a760048036038101906101a2919061175d565b610a56565b6040516101b4919061163f565b60405180910390f35b3480156101c957600080fd5b506101d2610a92565b6040516101df919061163f565b60405180910390f35b3480156101f457600080fd5b506101fd610aa5565b60405161020a919061169b565b60405180910390f35b61021b610ac9565b005b34801561022957600080fd5b50610232610d7a565b60405161023f919061169b565b60405180910390f35b610250611471565b6004600380602002604051908101604052809291906000905b828210156102e5578382016003806020026040519081016040528092919082600380156102d1576020028201916000905b82829054906101000a900460ff1660ff168152602001906001019060208260000104928301926001038202915080841161029a5790505b505050505081526020019060010190610269565b50505050905090565b600360159054906101000a900460ff1681565b600260009054906101000a900473ffffffffffffffffffffffffffffffffffffffff1681565b6000600360006101000a81548173ffffffffffffffffffffffffffffffffffffffff021916908373ffffffffffffffffffffffffffffffffffffffff1602179055506000600360146101000a81548160ff021916908360ff16021790555060008060006101000a81548173ffffffffffffffffffffffffffffffffffffffff021916908373ffffffffffffffffffffffffffffffffffffffff1602179055506000600160006101000a81548173ffffffffffffffffffffffffffffffffffffffff021916908373ffffffffffffffffffffffffffffffffffffffff1602179055506000600260006101000a81548173ffffffffffffffffffffffffffffffffffffffff021916908373ffffffffffffffffffffffffffffffffffffffff16021790555060005b60038160ff1610156104de5760005b60038160ff1610156104ca57600060048360ff16600381106104815761048061179d565b5b018260ff16600381106104975761049661179d565b5b602091828204019190066101000a81548160ff021916908360ff16021790555080806104c2906117fb565b91505061045c565b5080806104d6906117fb565b91505061044d565b506104e7610ac9565b7f7f700227c934c3494d20f8bc3399c7c81d14b80ed012918d307f9404dd90402760405160405180910390a1565b600160009054906101000a900473ffffffffffffffffffffffffffffffffffffffff1681565b60008054906101000a900473ffffffffffffffffffffffffffffffffffffffff1673ffffffffffffffffffffffffffffffffffffffff163373ffffffffffffffffffffffffffffffffffffffff1614806105e25750600160009054906101000a900473ffffffffffffffffffffffffffffffffffffffff1673ffffffffffffffffffffffffffffffffffffffff163373ffffffffffffffffffffffffffffffffffffffff16145b610621576040517f08c379a000000000000000000000000000000000000000000000000000000000815260040161061890611881565b60405180910390fd5b600073ffffffffffffffffffffffffffffffffffffffff16600360009054906101000a900473ffffffffffffffffffffffffffffffffffffffff1673ffffffffffffffffffffffffffffffffffffffff16146106b2576040517f08c379a00000000000000000000000000000000000000000000000000000000081526004016106a9906118ed565b60405180910390fd5b600060048360ff16600381106106cb576106ca61179d565b5b018260ff16600381106106e1576106e061179d565b5b602091828204019190069054906101000a900460ff1660ff161461073a576040517f08c379a000000000000000000000000000000000000000000000000000000000815260040161073190611959565b60405180910390fd5b600260009054906101000a900473ffffffffffffffffffffffffffffffffffffffff1673ffffffffffffffffffffffffffffffffffffffff163373ffffffffffffffffffffffffffffffffffffffff16146107ca576040517f08c379a00000000000000000000000000000000000000000000000000000000081526004016107c1906119c5565b60405180910390fd5b60008054906101000a900473ffffffffffffffffffffffffffffffffffffffff1673ffffffffffffffffffffffffffffffffffffffff163373ffffffffffffffffffffffffffffffffffffffff160361087157600160048360ff16600381106108365761083561179d565b5b018260ff166003811061084c5761084b61179d565b5b602091828204019190066101000a81548160ff021916908360ff1602179055506108c1565b600260048360ff166003811061088a5761088961179d565b5b018260ff16600381106108a05761089f61179d565b5b602091828204019190066101000a81548160ff021916908360ff1602179055505b3373ffffffffffffffffffffffffffffffffffffffff167f10ac166a969b6ae9b140c9d6b88c6c4e565e4fc22f858bf92f1542535f0f161a83836040516109099291906119e5565b60405180910390a261091b8282610da0565b6003601481819054906101000a900460ff168092919061093a906117fb565b91906101000a81548160ff021916908360ff1602179055505060008054906101000a900473ffffffffffffffffffffffffffffffffffffffff1673ffffffffffffffffffffffffffffffffffffffff16600260009054906101000a900473ffffffffffffffffffffffffffffffffffffffff1673ffffffffffffffffffffffffffffffffffffffff16146109ee5760008054906101000a900473ffffffffffffffffffffffffffffffffffffffff16610a12565b600160009054906101000a900473ffffffffffffffffffffffffffffffffffffffff165b600260006101000a81548173ffffffffffffffffffffffffffffffffffffffff021916908373ffffffffffffffffffffffffffffffffffffffff1602179055505050565b60048260038110610a6657600080fd5b018160038110610a7557600080fd5b60209182820401919006915091509054906101000a900460ff1681565b600360149054906101000a900460ff1681565b60008054906101000a900473ffffffffffffffffffffffffffffffffffffffff1681565b600073ffffffffffffffffffffffffffffffffffffffff16600160009054906101000a900473ffffffffffffffffffffffffffffffffffffffff1673ffffffffffffffffffffffffffffffffffffffff1614610b5a576040517f08c379a0000000000000000000000000000000000000000000000000000000008152600401610b5190611a5a565b60405180910390fd5b60008054906101000a900473ffffffffffffffffffffffffffffffffffffffff1673ffffffffffffffffffffffffffffffffffffffff163373ffffffffffffffffffffffffffffffffffffffff1603610be8576040517f08c379a0000000000000000000000000000000000000000000000000000000008152600401610bdf90611aec565b60405180910390fd5b600360159054906101000a900460ff1660ff163414610c3c576040517f08c379a0000000000000000000000000000000000000000000000000000000008152600401610c3390611b58565b60405180910390fd5b600073ffffffffffffffffffffffffffffffffffffffff1660008054906101000a900473ffffffffffffffffffffffffffffffffffffffff1673ffffffffffffffffffffffffffffffffffffffff1603610d3657336000806101000a81548173ffffffffffffffffffffffffffffffffffffffff021916908373ffffffffffffffffffffffffffffffffffffffff16021790555060008054906101000a900473ffffffffffffffffffffffffffffffffffffffff16600260006101000a81548173ffffffffffffffffffffffffffffffffffffffff021916908373ffffffffffffffffffffffffffffffffffffffff160217905550610d78565b33600160006101000a81548173ffffffffffffffffffffffffffffffffffffffff021916908373ffffffffffffffffffffffffffffffffffffffff1602179055505b565b600360009054906101000a900473ffffffffffffffffffffffffffffffffffffffff1681565b600060048360ff1660038110610db957610db861179d565b5b018260ff1660038110610dcf57610dce61179d565b5b602091828204019190069054906101000a900460ff169050610df183826110a0565b80610e025750610e018282611195565b5b80610e2557508160ff168360ff16148015610e245750610e2360018261128a565b5b5b80610e70575060028284610e399190611b78565b60ff16148015610e6f5750610e6e7fffffffffffffffffffffffffffffffffffffffffffffffffffffffffffffffff8261128a565b5b5b80610e8d57506009600360149054906101000a900460ff1660ff16145b1561109b576009600360149054906101000a900460ff1660ff1614610eb25733610eb5565b60015b600360006101000a81548173ffffffffffffffffffffffffffffffffffffffff021916908373ffffffffffffffffffffffffffffffffffffffff160217905550600073ffffffffffffffffffffffffffffffffffffffff16600360009054906101000a900473ffffffffffffffffffffffffffffffffffffffff1673ffffffffffffffffffffffffffffffffffffffff161461109a576000600360009054906101000a900473ffffffffffffffffffffffffffffffffffffffff1673ffffffffffffffffffffffffffffffffffffffff1647604051610f9390611bde565b60006040518083038185875af1925050503d8060008114610fd0576040519150601f19603f3d011682016040523d82523d6000602084013e610fd5565b606091505b5050905080611019576040517f08c379a000000000000000000000000000000000000000000000000000000000815260040161101090611c3f565b60405180910390fd5b600360009054906101000a900473ffffffffffffffffffffffffffffffffffffffff1673ffffffffffffffffffffffffffffffffffffffff167f864bccc7be387c1af59ea4287b5f055331e0ab6b9b546516d6265450d296bb15600360159054906101000a900460ff166040516110909190611c9a565b60405180910390a2505b5b505050565b60008160ff1660048460ff16600381106110bd576110bc61179d565b5b016000600381106110d1576110d061179d565b5b602091828204019190069054906101000a900460ff1660ff1614801561113c57508160ff1660048460ff166003811061110d5761110c61179d565b5b016001600381106111215761112061179d565b5b602091828204019190069054906101000a900460ff1660ff16145b801561118d57508160ff1660048460ff166003811061115e5761115d61179d565b5b016002600381106111725761117161179d565b5b602091828204019190069054906101000a900460ff1660ff16145b905092915050565b60008160ff1660046000600381106111b0576111af61179d565b5b018460ff16600381106111c6576111c561179d565b5b602091828204019190069054906101000a900460ff1660ff1614801561123157508160ff166004600160038110611200576111ff61179d565b5b018460ff16600381106112165761121561179d565b5b602091828204019190069054906101000a900460ff1660ff16145b801561128257508160ff1660046002600381106112515761125061179d565b5b018460ff16600381106112675761126661179d565b5b602091828204019190069054906101000a900460ff1660ff16145b905092915050565b600060018360000b03611383578160ff1660046000600381106112b0576112af61179d565b5b016000600381106112c4576112c361179d565b5b602091828204019190069054906101000a900460ff1660ff1614801561132d57508160ff1660046001600381106112fe576112fd61179d565b5b016001600381106113125761131161179d565b5b602091828204019190069054906101000a900460ff1660ff16145b801561137c57508160ff16600460026003811061134d5761134c61179d565b5b016002600381106113615761136061179d565b5b602091828204019190069054906101000a900460ff1660ff16145b905061146b565b8160ff16600460006003811061139c5761139b61179d565b5b016002600381106113b0576113af61179d565b5b602091828204019190069054906101000a900460ff1660ff1614801561141957508160ff1660046001600381106113ea576113e961179d565b5b016001600381106113fe576113fd61179d565b5b602091828204019190069054906101000a900460ff1660ff16145b801561146857508160ff1660046002600381106114395761143861179d565b5b0160006003811061144d5761144c61179d565b5b602091828204019190069054906101000a900460ff1660ff16145b90505b92915050565b60405180606001604052806003905b61148861149e565b8152602001906001900390816114805790505090565b6040518060600160405280600390602082028036833780820191505090505090565b600060039050919050565b600081905092915050565b6000819050919050565b600060039050919050565b600081905092915050565b6000819050919050565b600060ff82169050919050565b61151681611500565b82525050565b6000611528838361150d565b60208301905092915050565b6000602082019050919050565b61154a816114e0565b61155481846114eb565b925061155f826114f6565b8060005b83811015611590578151611577878261151c565b965061158283611534565b925050600181019050611563565b505050505050565b60006115a48383611541565b60608301905092915050565b6000602082019050919050565b6115c6816114c0565b6115d081846114cb565b92506115db826114d6565b8060005b8381101561160c5781516115f38782611598565b96506115fe836115b0565b9250506001810190506115df565b505050505050565b60006101208201905061162a60008301846115bd565b92915050565b61163981611500565b82525050565b60006020820190506116546000830184611630565b92915050565b600073ffffffffffffffffffffffffffffffffffffffff82169050919050565b60006116858261165a565b9050919050565b6116958161167a565b82525050565b60006020820190506116b0600083018461168c565b92915050565b600080fd5b6116c481611500565b81146116cf57600080fd5b50565b6000813590506116e1816116bb565b92915050565b600080604083850312156116fe576116fd6116b6565b5b600061170c858286016116d2565b925050602061171d858286016116d2565b9150509250929050565b6000819050919050565b61173a81611727565b811461174557600080fd5b50565b60008135905061175781611731565b92915050565b60008060408385031215611774576117736116b6565b5b600061178285828601611748565b925050602061179385828601611748565b9150509250929050565b7f4e487b7100000000000000000000000000000000000000000000000000000000600052603260045260246000fd5b7f4e487b7100000000000000000000000000000000000000000000000000000000600052601160045260246000fd5b600061180682611500565b915060ff8203611819576118186117cc565b5b600182019050919050565b600082825260208201905092915050565b7f4f6e6c7920706c61796572732063616e20696e7465726163742e000000000000600082015250565b600061186b601a83611824565b915061187682611835565b602082019050919050565b6000602082019050818103600083015261189a8161185e565b9050919050565b7f5468652067616d6520697320616c7265616479206f7665722e00000000000000600082015250565b60006118d7601983611824565b91506118e2826118a1565b602082019050919050565b60006020820190508181036000830152611906816118ca565b9050919050565b7f496e76616c6964206d6f76652e00000000000000000000000000000000000000600082015250565b6000611943600d83611824565b915061194e8261190d565b602082019050919050565b6000602082019050818103600083015261197281611936565b9050919050565b7f49742773206e6f7420796f7572207475726e2e00000000000000000000000000600082015250565b60006119af601383611824565b91506119ba82611979565b602082019050919050565b600060208201905081810360008301526119de816119a2565b9050919050565b60006040820190506119fa6000830185611630565b611a076020830184611630565b9392505050565b7f5468652067616d652069732066756c6c2e000000000000000000000000000000600082015250565b6000611a44601183611824565b9150611a4f82611a0e565b602082019050919050565b60006020820190508181036000830152611a7381611a37565b9050919050565b7f596f752063616e6e6f7420706c617920616761696e737420796f757273656c6660008201527f2e00000000000000000000000000000000000000000000000000000000000000602082015250565b6000611ad6602183611824565b9150611ae182611a7a565b604082019050919050565b60006020820190508181036000830152611b0581611ac9565b9050919050565b7f496e636f7272656374207374616b6520616d6f756e7400000000000000000000600082015250565b6000611b42601683611824565b9150611b4d82611b0c565b602082019050919050565b60006020820190508181036000830152611b7181611b35565b9050919050565b6000611b8382611500565b9150611b8e83611500565b9250828201905060ff811115611ba757611ba66117cc565b5b92915050565b600081905092915050565b50565b6000611bc8600083611bad565b9150611bd382611bb8565b600082019050919050565b6000611be982611bbb565b9150819050919050565b7f5472616e73666572206661696c65642e00000000000000000000000000000000600082015250565b6000611c29601083611824565b9150611c3482611bf3565b602082019050919050565b60006020820190508181036000830152611c5881611c1c565b9050919050565b6000819050919050565b6000611c84611c7f611c7a84611500565b611c5f565b611727565b9050919050565b611c9481611c69565b82525050565b6000602082019050611caf6000830184611c8b565b9291505056fea2646970667358221220261b731ec6677e456072669b52bb8db67bb07e80cb488d77c3fd0d3d7683f4ff64736f6c63430008130033",
  "linkReferences": {},
  "deployedLinkReferences": {}
}