{
  "_format": "hh-sol-artifact-1",
  "contractName": "TicTacToe",
  "sourceName": "contracts/tictactoe.sol",
  "abi": [
    {
      "inputs": [
        {
          "internalType": "uint8",
          "name": "_stake",
          "type": "uint8"
        }
      ],
      "stateMutability": "nonpayable",
      "type": "constructor"
    },
    {
      "anonymous": false,
      "inputs": [
        {
          "indexed": true,
          "internalType": "address",
          "name": "winner",
          "type": "address"
        },
        {
          "indexed": false,
          "internalType": "uint256",
          "name": "amountWon",
          "type": "uint256"
        }
      ],
      "name": "GameOver",
      "type": "event"
    },
    {
      "anonymous": false,
      "inputs": [
        {
          "indexed": true,
          "internalType": "address",
          "name": "player",
          "type": "address"
        },
        {
          "indexed": false,
          "internalType": "uint8",
          "name": "row",
          "type": "uint8"
        },
        {
          "indexed": false,
          "internalType": "uint8",
          "name": "col",
          "type": "uint8"
        }
      ],
      "name": "MoveMade",
      "type": "event"
    },
    {
      "anonymous": false,
      "inputs": [],
      "name": "NewGameStarted",
      "type": "event"
    },
    {
      "inputs": [
        {
          "internalType": "uint256",
          "name": "",
          "type": "uint256"
        },
        {
          "internalType": "uint256",
          "name": "",
          "type": "uint256"
        }
      ],
      "name": "board",
      "outputs": [
        {
          "internalType": "uint8",
          "name": "",
          "type": "uint8"
        }
      ],
      "stateMutability": "view",
      "type": "function"
    },
    {
      "inputs": [],
      "name": "currentPlayer",
      "outputs": [
        {
          "internalType": "address",
          "name": "",
          "type": "address"
        }
      ],
      "stateMutability": "view",
      "type": "function"
    },
    {
      "inputs": [],
      "name": "getBoard",
      "outputs": [
        {
          "internalType": "uint8[3][3]",
          "name": "",
          "type": "uint8[3][3]"
        }
      ],
      "stateMutability": "view",
      "type": "function"
    },
    {
      "inputs": [],
      "name": "joinGame",
      "outputs": [],
      "stateMutability": "payable",
      "type": "function"
    },
    {
      "inputs": [
        {
          "internalType": "uint8",
          "name": "row",
          "type": "uint8"
        },
        {
          "internalType": "uint8",
          "name": "col",
          "type": "uint8"
        }
      ],
      "name": "makeMove",
      "outputs": [],
      "stateMutability": "nonpayable",
      "type": "function"
    },
    {
      "inputs": [],
      "name": "player1",
      "outputs": [
        {
          "internalType": "address",
          "name": "",
          "type": "address"
        }
      ],
      "stateMutability": "view",
      "type": "function"
    },
    {
      "inputs": [],
      "name": "player2",
      "outputs": [
        {
          "internalType": "address",
          "name": "",
          "type": "address"
        }
      ],
      "stateMutability": "view",
      "type": "function"
    },
    {
      "inputs": [],
      "name": "stake",
      "outputs": [
        {
          "internalType": "uint8",
          "name": "",
          "type": "uint8"
        }
      ],
      "stateMutability": "view",
      "type": "function"
    },
    {
      "inputs": [],
      "name": "startNewGame",
      "outputs": [],
      "stateMutability": "payable",
      "type": "function"
    },
    {
      "inputs": [],
      "name": "turn",
      "outputs": [
        {
          "internalType": "uint8",
          "name": "",
          "type": "uint8"
        }
      ],
      "stateMutability": "view",
      "type": "function"
    },
    {
      "inputs": [],
      "name": "winner",
      "outputs": [
        {
          "internalType": "address",
          "name": "",
          "type": "address"
        }
      ],
      "stateMutability": "view",
      "type": "function"
    },
    {
      "inputs": [
        {
          "internalType": "uint256",
          "name": "",
          "type": "uint256"
        }
      ],
      "name": "winners",
      "outputs": [
        {
          "internalType": "address",
          "name": "",
          "type": "address"
        }
      ],
      "stateMutability": "view",
      "type": "function"
    }
  ],
  "bytecode": "0x60806040523480156200001157600080fd5b5060405162001fce38038062001fce8339818101604052810190620000379190620000e5565b60008160ff161162000080576040517f08c379a0000000000000000000000000000000000000000000000000000000008152600401620000779062000178565b60405180910390fd5b80600360156101000a81548160ff021916908360ff160217905550506200019a565b600080fd5b600060ff82169050919050565b620000bf81620000a7565b8114620000cb57600080fd5b50565b600081519050620000df81620000b4565b92915050565b600060208284031215620000fe57620000fd620000a2565b5b60006200010e84828501620000ce565b91505092915050565b600082825260208201905092915050565b7f5374616b65206d7573742062652067726561746572207468616e203000000000600082015250565b600062000160601c8362000117565b91506200016d8262000128565b602082019050919050565b60006020820190508181036000830152620001938162000151565b9050919050565b611e2480620001aa6000396000f3fe6080604052600436106100a75760003560e01c80638086a92a116100645780638086a92a1461018b5780638b299903146101c8578063a2fb1175146101f3578063d30895e414610230578063d4f77b1c1461025b578063dfbf53ae14610265576100a7565b80633264a34b146100ac5780633a4b66f1146100d75780634404a43814610102578063482d51e01461012d57806359a5f12d146101375780635e24b0f114610162575b600080fd5b3480156100b857600080fd5b506100c1610290565b6040516100ce9190611720565b60405180910390f35b3480156100e357600080fd5b506100ec610336565b6040516100f9919061174b565b60405180910390f35b34801561010e57600080fd5b50610117610349565b60405161012491906117a7565b60405180910390f35b61013561036f565b005b34801561014357600080fd5b5061014c61055d565b60405161015991906117a7565b60405180910390f35b34801561016e57600080fd5b50610189600480360381019061018491906117f3565b610583565b005b34801561019757600080fd5b506101b260048036038101906101ad9190611869565b610a9e565b6040516101bf919061174b565b60405180910390f35b3480156101d457600080fd5b506101dd610ada565b6040516101ea919061174b565b60405180910390f35b3480156101ff57600080fd5b5061021a600480360381019061021591906118a9565b610aed565b60405161022791906117a7565b60405180910390f35b34801561023c57600080fd5b50610245610b2c565b60405161025291906117a7565b60405180910390f35b610263610b50565b005b34801561027157600080fd5b5061027a610e01565b60405161028791906117a7565b60405180910390f35b61029861157d565b6004600380602002604051908101604052809291906000905b8282101561032d57838201600380602002604051908101604052809291908260038015610319576020028201916000905b82829054906101000a900460ff1660ff16815260200190600101906020826000010492830192600103820291508084116102e25790505b5050505050815260200190600101906102b1565b50505050905090565b600360159054906101000a900460ff1681565b600260009054906101000a900473ffffffffffffffffffffffffffffffffffffffff1681565b6000600360006101000a81548173ffffffffffffffffffffffffffffffffffffffff021916908373ffffffffffffffffffffffffffffffffffffffff1602179055506000600360146101000a81548160ff021916908360ff16021790555060008060006101000a81548173ffffffffffffffffffffffffffffffffffffffff021916908373ffffffffffffffffffffffffffffffffffffffff1602179055506000600160006101000a81548173ffffffffffffffffffffffffffffffffffffffff021916908373ffffffffffffffffffffffffffffffffffffffff1602179055506000600260006101000a81548173ffffffffffffffffffffffffffffffffffffffff021916908373ffffffffffffffffffffffffffffffffffffffff16021790555060005b60038160ff1610156105265760005b60038160ff16101561051257600060048360ff16600381106104c9576104c86118d6565b5b018260ff16600381106104df576104de6118d6565b5b602091828204019190066101000a81548160ff021916908360ff160217905550808061050a90611934565b9150506104a4565b50808061051e90611934565b915050610495565b5061052f610b50565b7f7f700227c934c3494d20f8bc3399c7c81d14b80ed012918d307f9404dd90402760405160405180910390a1565b600160009054906101000a900473ffffffffffffffffffffffffffffffffffffffff1681565b60008054906101000a900473ffffffffffffffffffffffffffffffffffffffff1673ffffffffffffffffffffffffffffffffffffffff163373ffffffffffffffffffffffffffffffffffffffff16148061062a5750600160009054906101000a900473ffffffffffffffffffffffffffffffffffffffff1673ffffffffffffffffffffffffffffffffffffffff163373ffffffffffffffffffffffffffffffffffffffff16145b610669576040517f08c379a0000000000000000000000000000000000000000000000000000000008152600401610660906119ba565b60405180910390fd5b600073ffffffffffffffffffffffffffffffffffffffff16600360009054906101000a900473ffffffffffffffffffffffffffffffffffffffff1673ffffffffffffffffffffffffffffffffffffffff16146106fa576040517f08c379a00000000000000000000000000000000000000000000000000000000081526004016106f190611a26565b60405180910390fd5b600060048360ff1660038110610713576107126118d6565b5b018260ff1660038110610729576107286118d6565b5b602091828204019190069054906101000a900460ff1660ff1614610782576040517f08c379a000000000000000000000000000000000000000000000000000000000815260040161077990611a92565b60405180910390fd5b600260009054906101000a900473ffffffffffffffffffffffffffffffffffffffff1673ffffffffffffffffffffffffffffffffffffffff163373ffffffffffffffffffffffffffffffffffffffff1614610812576040517f08c379a000000000000000000000000000000000000000000000000000000000815260040161080990611afe565b60405180910390fd5b60008054906101000a900473ffffffffffffffffffffffffffffffffffffffff1673ffffffffffffffffffffffffffffffffffffffff163373ffffffffffffffffffffffffffffffffffffffff16036108b957600160048360ff166003811061087e5761087d6118d6565b5b018260ff1660038110610894576108936118d6565b5b602091828204019190066101000a81548160ff021916908360ff160217905550610909565b600260048360ff16600381106108d2576108d16118d6565b5b018260ff16600381106108e8576108e76118d6565b5b602091828204019190066101000a81548160ff021916908360ff1602179055505b3373ffffffffffffffffffffffffffffffffffffffff167f10ac166a969b6ae9b140c9d6b88c6c4e565e4fc22f858bf92f1542535f0f161a8383604051610951929190611b1e565b60405180910390a26109638282610e27565b6003601481819054906101000a900460ff168092919061098290611934565b91906101000a81548160ff021916908360ff1602179055505060008054906101000a900473ffffffffffffffffffffffffffffffffffffffff1673ffffffffffffffffffffffffffffffffffffffff16600260009054906101000a900473ffffffffffffffffffffffffffffffffffffffff1673ffffffffffffffffffffffffffffffffffffffff1614610a365760008054906101000a900473ffffffffffffffffffffffffffffffffffffffff16610a5a565b600160009054906101000a900473ffffffffffffffffffffffffffffffffffffffff165b600260006101000a81548173ffffffffffffffffffffffffffffffffffffffff021916908373ffffffffffffffffffffffffffffffffffffffff1602179055505050565b60048260038110610aae57600080fd5b018160038110610abd57600080fd5b60209182820401919006915091509054906101000a900460ff1681565b600360149054906101000a900460ff1681565b60078181548110610afd57600080fd5b906000526020600020016000915054906101000a900473ffffffffffffffffffffffffffffffffffffffff1681565b60008054906101000a900473ffffffffffffffffffffffffffffffffffffffff1681565b600073ffffffffffffffffffffffffffffffffffffffff16600160009054906101000a900473ffffffffffffffffffffffffffffffffffffffff1673ffffffffffffffffffffffffffffffffffffffff1614610be1576040517f08c379a0000000000000000000000000000000000000000000000000000000008152600401610bd890611b93565b60405180910390fd5b60008054906101000a900473ffffffffffffffffffffffffffffffffffffffff1673ffffffffffffffffffffffffffffffffffffffff163373ffffffffffffffffffffffffffffffffffffffff1603610c6f576040517f08c379a0000000000000000000000000000000000000000000000000000000008152600401610c6690611c25565b60405180910390fd5b600360159054906101000a900460ff1660ff163414610cc3576040517f08c379a0000000000000000000000000000000000000000000000000000000008152600401610cba90611c91565b60405180910390fd5b600073ffffffffffffffffffffffffffffffffffffffff1660008054906101000a900473ffffffffffffffffffffffffffffffffffffffff1673ffffffffffffffffffffffffffffffffffffffff1603610dbd57336000806101000a81548173ffffffffffffffffffffffffffffffffffffffff021916908373ffffffffffffffffffffffffffffffffffffffff16021790555060008054906101000a900473ffffffffffffffffffffffffffffffffffffffff16600260006101000a81548173ffffffffffffffffffffffffffffffffffffffff021916908373ffffffffffffffffffffffffffffffffffffffff160217905550610dff565b33600160006101000a81548173ffffffffffffffffffffffffffffffffffffffff021916908373ffffffffffffffffffffffffffffffffffffffff1602179055505b565b600360009054906101000a900473ffffffffffffffffffffffffffffffffffffffff1681565b600060048360ff1660038110610e4057610e3f6118d6565b5b018260ff1660038110610e5657610e556118d6565b5b602091828204019190069054906101000a900460ff169050610e7883826111ac565b80610e895750610e8882826112a1565b5b80610eac57508160ff168360ff16148015610eab5750610eaa600182611396565b5b5b80610ef7575060028284610ec09190611cb1565b60ff16148015610ef65750610ef57fffffffffffffffffffffffffffffffffffffffffffffffffffffffffffffffff82611396565b5b5b80610f1457506009600360149054906101000a900460ff1660ff16145b156111a7576009600360149054906101000a900460ff1660ff1614610f395733610f3c565b60015b600360006101000a81548173ffffffffffffffffffffffffffffffffffffffff021916908373ffffffffffffffffffffffffffffffffffffffff160217905550600073ffffffffffffffffffffffffffffffffffffffff16600360009054906101000a900473ffffffffffffffffffffffffffffffffffffffff1673ffffffffffffffffffffffffffffffffffffffff16146111a6576007600360009054906101000a900473ffffffffffffffffffffffffffffffffffffffff169080600181540180825580915050600190039060005260206000200160009091909190916101000a81548173ffffffffffffffffffffffffffffffffffffffff021916908373ffffffffffffffffffffffffffffffffffffffff1602179055506000600360009054906101000a900473ffffffffffffffffffffffffffffffffffffffff1673ffffffffffffffffffffffffffffffffffffffff164760405161109f90611d17565b60006040518083038185875af1925050503d80600081146110dc576040519150601f19603f3d011682016040523d82523d6000602084013e6110e1565b606091505b5050905080611125576040517f08c379a000000000000000000000000000000000000000000000000000000000815260040161111c90611d78565b60405180910390fd5b600360009054906101000a900473ffffffffffffffffffffffffffffffffffffffff1673ffffffffffffffffffffffffffffffffffffffff167f864bccc7be387c1af59ea4287b5f055331e0ab6b9b546516d6265450d296bb15600360159054906101000a900460ff1660405161119c9190611dd3565b60405180910390a2505b5b505050565b60008160ff1660048460ff16600381106111c9576111c86118d6565b5b016000600381106111dd576111dc6118d6565b5b602091828204019190069054906101000a900460ff1660ff1614801561124857508160ff1660048460ff1660038110611219576112186118d6565b5b0160016003811061122d5761122c6118d6565b5b602091828204019190069054906101000a900460ff1660ff16145b801561129957508160ff1660048460ff166003811061126a576112696118d6565b5b0160026003811061127e5761127d6118d6565b5b602091828204019190069054906101000a900460ff1660ff16145b905092915050565b60008160ff1660046000600381106112bc576112bb6118d6565b5b018460ff16600381106112d2576112d16118d6565b5b602091828204019190069054906101000a900460ff1660ff1614801561133d57508160ff16600460016003811061130c5761130b6118d6565b5b018460ff1660038110611322576113216118d6565b5b602091828204019190069054906101000a900460ff1660ff16145b801561138e57508160ff16600460026003811061135d5761135c6118d6565b5b018460ff1660038110611373576113726118d6565b5b602091828204019190069054906101000a900460ff1660ff16145b905092915050565b600060018360000b0361148f578160ff1660046000600381106113bc576113bb6118d6565b5b016000600381106113d0576113cf6118d6565b5b602091828204019190069054906101000a900460ff1660ff1614801561143957508160ff16600460016003811061140a576114096118d6565b5b0160016003811061141e5761141d6118d6565b5b602091828204019190069054906101000a900460ff1660ff16145b801561148857508160ff166004600260038110611459576114586118d6565b5b0160026003811061146d5761146c6118d6565b5b602091828204019190069054906101000a900460ff1660ff16145b9050611577565b8160ff1660046000600381106114a8576114a76118d6565b5b016002600381106114bc576114bb6118d6565b5b602091828204019190069054906101000a900460ff1660ff1614801561152557508160ff1660046001600381106114f6576114f56118d6565b5b0160016003811061150a576115096118d6565b5b602091828204019190069054906101000a900460ff1660ff16145b801561157457508160ff166004600260038110611545576115446118d6565b5b01600060038110611559576115586118d6565b5b602091828204019190069054906101000a900460ff1660ff16145b90505b92915050565b60405180606001604052806003905b6115946115aa565b81526020019060019003908161158c5790505090565b6040518060600160405280600390602082028036833780820191505090505090565b600060039050919050565b600081905092915050565b6000819050919050565b600060039050919050565b600081905092915050565b6000819050919050565b600060ff82169050919050565b6116228161160c565b82525050565b60006116348383611619565b60208301905092915050565b6000602082019050919050565b611656816115ec565b61166081846115f7565b925061166b82611602565b8060005b8381101561169c5781516116838782611628565b965061168e83611640565b92505060018101905061166f565b505050505050565b60006116b0838361164d565b60608301905092915050565b6000602082019050919050565b6116d2816115cc565b6116dc81846115d7565b92506116e7826115e2565b8060005b838110156117185781516116ff87826116a4565b965061170a836116bc565b9250506001810190506116eb565b505050505050565b60006101208201905061173660008301846116c9565b92915050565b6117458161160c565b82525050565b6000602082019050611760600083018461173c565b92915050565b600073ffffffffffffffffffffffffffffffffffffffff82169050919050565b600061179182611766565b9050919050565b6117a181611786565b82525050565b60006020820190506117bc6000830184611798565b92915050565b600080fd5b6117d08161160c565b81146117db57600080fd5b50565b6000813590506117ed816117c7565b92915050565b6000806040838503121561180a576118096117c2565b5b6000611818858286016117de565b9250506020611829858286016117de565b9150509250929050565b6000819050919050565b61184681611833565b811461185157600080fd5b50565b6000813590506118638161183d565b92915050565b600080604083850312156118805761187f6117c2565b5b600061188e85828601611854565b925050602061189f85828601611854565b9150509250929050565b6000602082840312156118bf576118be6117c2565b5b60006118cd84828501611854565b91505092915050565b7f4e487b7100000000000000000000000000000000000000000000000000000000600052603260045260246000fd5b7f4e487b7100000000000000000000000000000000000000000000000000000000600052601160045260246000fd5b600061193f8261160c565b915060ff820361195257611951611905565b5b600182019050919050565b600082825260208201905092915050565b7f4f6e6c7920706c61796572732063616e20696e7465726163742e000000000000600082015250565b60006119a4601a8361195d565b91506119af8261196e565b602082019050919050565b600060208201905081810360008301526119d381611997565b9050919050565b7f5468652067616d6520697320616c7265616479206f7665722e00000000000000600082015250565b6000611a1060198361195d565b9150611a1b826119da565b602082019050919050565b60006020820190508181036000830152611a3f81611a03565b9050919050565b7f496e76616c6964206d6f76652e00000000000000000000000000000000000000600082015250565b6000611a7c600d8361195d565b9150611a8782611a46565b602082019050919050565b60006020820190508181036000830152611aab81611a6f565b9050919050565b7f49742773206e6f7420796f7572207475726e2e00000000000000000000000000600082015250565b6000611ae860138361195d565b9150611af382611ab2565b602082019050919050565b60006020820190508181036000830152611b1781611adb565b9050919050565b6000604082019050611b33600083018561173c565b611b40602083018461173c565b9392505050565b7f5468652067616d652069732066756c6c2e000000000000000000000000000000600082015250565b6000611b7d60118361195d565b9150611b8882611b47565b602082019050919050565b60006020820190508181036000830152611bac81611b70565b9050919050565b7f596f752063616e6e6f7420706c617920616761696e737420796f757273656c6660008201527f2e00000000000000000000000000000000000000000000000000000000000000602082015250565b6000611c0f60218361195d565b9150611c1a82611bb3565b604082019050919050565b60006020820190508181036000830152611c3e81611c02565b9050919050565b7f496e636f7272656374207374616b6520616d6f756e7400000000000000000000600082015250565b6000611c7b60168361195d565b9150611c8682611c45565b602082019050919050565b60006020820190508181036000830152611caa81611c6e565b9050919050565b6000611cbc8261160c565b9150611cc78361160c565b9250828201905060ff811115611ce057611cdf611905565b5b92915050565b600081905092915050565b50565b6000611d01600083611ce6565b9150611d0c82611cf1565b600082019050919050565b6000611d2282611cf4565b9150819050919050565b7f5472616e73666572206661696c65642e00000000000000000000000000000000600082015250565b6000611d6260108361195d565b9150611d6d82611d2c565b602082019050919050565b60006020820190508181036000830152611d9181611d55565b9050919050565b6000819050919050565b6000611dbd611db8611db38461160c565b611d98565b611833565b9050919050565b611dcd81611da2565b82525050565b6000602082019050611de86000830184611dc4565b9291505056fea264697066735822122038ee14b8a4eaef19e264c75e22f93e3db2610bfef6144226c93e4c26c73b0a8164736f6c63430008130033",
  "linkReferences": {},
  "deployedLinkReferences": {}
}